{
  "_format": "hh-sol-artifact-1",
  "contractName": "Twitter",
  "sourceName": "contracts/twitter.sol",
  "abi": [
    {
      "inputs": [],
      "stateMutability": "nonpayable",
      "type": "constructor"
    },
    {
      "anonymous": false,
      "inputs": [
        {
          "indexed": false,
          "internalType": "uint256",
          "name": "id",
          "type": "uint256"
        },
        {
          "indexed": false,
          "internalType": "address",
          "name": "author",
          "type": "address"
        },
        {
          "indexed": false,
          "internalType": "string",
          "name": "content",
          "type": "string"
        },
        {
          "indexed": false,
          "internalType": "uint256",
          "name": "timestamp",
          "type": "uint256"
        }
      ],
      "name": "TweetCreated",
      "type": "event"
    },
    {
      "anonymous": false,
      "inputs": [
        {
          "indexed": false,
          "internalType": "address",
          "name": "liker",
          "type": "address"
        },
        {
          "indexed": false,
          "internalType": "address",
          "name": "tweetAuthor",
          "type": "address"
        },
        {
          "indexed": false,
          "internalType": "uint256",
          "name": "tweetId",
          "type": "uint256"
        },
        {
          "indexed": false,
          "internalType": "uint256",
          "name": "newLikeCount",
          "type": "uint256"
        }
      ],
      "name": "TweetLiked",
      "type": "event"
    },
    {
      "anonymous": false,
      "inputs": [
        {
          "indexed": false,
          "internalType": "address",
          "name": "unliker",
          "type": "address"
        },
        {
          "indexed": false,
          "internalType": "address",
          "name": "tweetAuthor",
          "type": "address"
        },
        {
          "indexed": false,
          "internalType": "uint256",
          "name": "tweetId",
          "type": "uint256"
        },
        {
          "indexed": false,
          "internalType": "uint256",
          "name": "newLikeCount",
          "type": "uint256"
        }
      ],
      "name": "TweetUnliked",
      "type": "event"
    },
    {
      "inputs": [],
      "name": "MAX_TWEET_LENGTH",
      "outputs": [
        {
          "internalType": "uint16",
          "name": "",
          "type": "uint16"
        }
      ],
      "stateMutability": "view",
      "type": "function"
    },
    {
      "inputs": [
        {
          "internalType": "uint16",
          "name": "newTweetLength",
          "type": "uint16"
        }
      ],
      "name": "changeTweetLength",
      "outputs": [],
      "stateMutability": "nonpayable",
      "type": "function"
    },
    {
      "inputs": [
        {
          "internalType": "string",
          "name": "_tweet",
          "type": "string"
        }
      ],
      "name": "createTweet",
      "outputs": [],
      "stateMutability": "nonpayable",
      "type": "function"
    },
    {
      "inputs": [
        {
          "internalType": "address",
          "name": "_owner",
          "type": "address"
        }
      ],
      "name": "getAllTweets",
      "outputs": [
        {
          "components": [
            {
              "internalType": "uint256",
              "name": "id",
              "type": "uint256"
            },
            {
              "internalType": "address",
              "name": "author",
              "type": "address"
            },
            {
              "internalType": "string",
              "name": "content",
              "type": "string"
            },
            {
              "internalType": "uint256",
              "name": "timestamp",
              "type": "uint256"
            },
            {
              "internalType": "uint256",
              "name": "likes",
              "type": "uint256"
            }
          ],
          "internalType": "struct Twitter.Tweet[]",
          "name": "",
          "type": "tuple[]"
        }
      ],
      "stateMutability": "view",
      "type": "function"
    },
    {
      "inputs": [
        {
          "internalType": "address",
          "name": "_author",
          "type": "address"
        }
      ],
      "name": "getTotalLikes",
      "outputs": [
        {
          "internalType": "uint256",
          "name": "",
          "type": "uint256"
        }
      ],
      "stateMutability": "view",
      "type": "function"
    },
    {
      "inputs": [
        {
          "internalType": "uint256",
          "name": "_i",
          "type": "uint256"
        }
      ],
      "name": "getTweet",
      "outputs": [
        {
          "components": [
            {
              "internalType": "uint256",
              "name": "id",
              "type": "uint256"
            },
            {
              "internalType": "address",
              "name": "author",
              "type": "address"
            },
            {
              "internalType": "string",
              "name": "content",
              "type": "string"
            },
            {
              "internalType": "uint256",
              "name": "timestamp",
              "type": "uint256"
            },
            {
              "internalType": "uint256",
              "name": "likes",
              "type": "uint256"
            }
          ],
          "internalType": "struct Twitter.Tweet",
          "name": "",
          "type": "tuple"
        }
      ],
      "stateMutability": "view",
      "type": "function"
    },
    {
      "inputs": [
        {
          "internalType": "address",
          "name": "author",
          "type": "address"
        },
        {
          "internalType": "uint256",
          "name": "id",
          "type": "uint256"
        }
      ],
      "name": "likeTweet",
      "outputs": [],
      "stateMutability": "nonpayable",
      "type": "function"
    },
    {
      "inputs": [],
      "name": "owner",
      "outputs": [
        {
          "internalType": "address",
          "name": "",
          "type": "address"
        }
      ],
      "stateMutability": "view",
      "type": "function"
    },
    {
      "inputs": [
        {
          "internalType": "address",
          "name": "",
          "type": "address"
        },
        {
          "internalType": "uint256",
          "name": "",
          "type": "uint256"
        }
      ],
      "name": "tweets",
      "outputs": [
        {
          "internalType": "uint256",
          "name": "id",
          "type": "uint256"
        },
        {
          "internalType": "address",
          "name": "author",
          "type": "address"
        },
        {
          "internalType": "string",
          "name": "content",
          "type": "string"
        },
        {
          "internalType": "uint256",
          "name": "timestamp",
          "type": "uint256"
        },
        {
          "internalType": "uint256",
          "name": "likes",
          "type": "uint256"
        }
      ],
      "stateMutability": "view",
      "type": "function"
    },
    {
      "inputs": [
        {
          "internalType": "address",
          "name": "author",
          "type": "address"
        },
        {
          "internalType": "uint256",
          "name": "id",
          "type": "uint256"
        }
      ],
      "name": "unlikeTweet",
      "outputs": [],
      "stateMutability": "nonpayable",
      "type": "function"
    }
  ],
  "bytecode": "0x60806040526101186000806101000a81548161ffff021916908361ffff160217905550348015602d57600080fd5b5033600260006101000a81548173ffffffffffffffffffffffffffffffffffffffff021916908373ffffffffffffffffffffffffffffffffffffffff160217905550611ba98061007e6000396000f3fe608060405234801561001057600080fd5b506004361061009e5760003560e01c80636eb10797116100665780636eb107971461015b5780637c9cd2bc14610179578063820785cc146101955780638da5cb5b146101c5578063c3ad5ecb146101e35761009e565b806305a1b4a9146100a357806312e7ee1c146100d75780633d9b569f1461010757806358bfa4ab14610123578063633782161461013f575b600080fd5b6100bd60048036038101906100b89190610f10565b610213565b6040516100ce959493929190610ffe565b60405180910390f35b6100f160048036038101906100ec9190611058565b61030e565b6040516100fe9190611225565b60405180910390f35b610121600480360381019061011c9190610f10565b6104b2565b005b61013d60048036038101906101389190611281565b610716565b005b61015960048036038101906101549190610f10565b6107c5565b005b610163610984565b60405161017091906112bd565b60405180910390f35b610193600480360381019061018e919061140d565b610996565b005b6101af60048036038101906101aa9190611058565b610ba7565b6040516101bc9190611456565b60405180910390f35b6101cd610c7e565b6040516101da9190611471565b60405180910390f35b6101fd60048036038101906101f8919061148c565b610ca4565b60405161020a919061152f565b60405180910390f35b6001602052816000526040600020818154811061022f57600080fd5b9060005260206000209060050201600091509150508060000154908060010160009054906101000a900473ffffffffffffffffffffffffffffffffffffffff169080600201805461027f90611580565b80601f01602080910402602001604051908101604052809291908181526020018280546102ab90611580565b80156102f85780601f106102cd576101008083540402835291602001916102f8565b820191906000526020600020905b8154815290600101906020018083116102db57829003601f168201915b5050505050908060030154908060040154905085565b6060600160008373ffffffffffffffffffffffffffffffffffffffff1673ffffffffffffffffffffffffffffffffffffffff168152602001908152602001600020805480602002602001604051908101604052809291908181526020016000905b828210156104a757838290600052602060002090600502016040518060a0016040529081600082015481526020016001820160009054906101000a900473ffffffffffffffffffffffffffffffffffffffff1673ffffffffffffffffffffffffffffffffffffffff1673ffffffffffffffffffffffffffffffffffffffff16815260200160028201805461040290611580565b80601f016020809104026020016040519081016040528092919081815260200182805461042e90611580565b801561047b5780601f106104505761010080835404028352916020019161047b565b820191906000526020600020905b81548152906001019060200180831161045e57829003601f168201915b50505050508152602001600382015481526020016004820154815250508152602001906001019061036f565b505050509050919050565b80600160008473ffffffffffffffffffffffffffffffffffffffff1673ffffffffffffffffffffffffffffffffffffffff1681526020019081526020016000208281548110610504576105036115b1565b5b90600052602060002090600502016000015414610556576040517f08c379a000000000000000000000000000000000000000000000000000000000815260040161054d9061162c565b60405180910390fd5b6000600160008473ffffffffffffffffffffffffffffffffffffffff1673ffffffffffffffffffffffffffffffffffffffff16815260200190815260200160002082815481106105a9576105a86115b1565b5b906000526020600020906005020160040154116105fb576040517f08c379a00000000000000000000000000000000000000000000000000000000081526004016105f290611698565b60405180910390fd5b600160008373ffffffffffffffffffffffffffffffffffffffff1673ffffffffffffffffffffffffffffffffffffffff168152602001908152602001600020818154811061064c5761064b6115b1565b5b9060005260206000209060050201600401600081548092919061066e906116e7565b91905055507f762c2616349603ac16eba0de8e6141b79129a07ab63bd99e0a80b3a471716943338383600160008773ffffffffffffffffffffffffffffffffffffffff1673ffffffffffffffffffffffffffffffffffffffff16815260200190815260200160002085815481106106e8576106e76115b1565b5b90600052602060002090600502016004015460405161070a9493929190611710565b60405180910390a15050565b600260009054906101000a900473ffffffffffffffffffffffffffffffffffffffff1673ffffffffffffffffffffffffffffffffffffffff163373ffffffffffffffffffffffffffffffffffffffff16146107a6576040517f08c379a000000000000000000000000000000000000000000000000000000000815260040161079d906117a1565b60405180910390fd5b806000806101000a81548161ffff021916908361ffff16021790555050565b80600160008473ffffffffffffffffffffffffffffffffffffffff1673ffffffffffffffffffffffffffffffffffffffff1681526020019081526020016000208281548110610817576108166115b1565b5b90600052602060002090600502016000015414610869576040517f08c379a00000000000000000000000000000000000000000000000000000000081526004016108609061162c565b60405180910390fd5b600160008373ffffffffffffffffffffffffffffffffffffffff1673ffffffffffffffffffffffffffffffffffffffff16815260200190815260200160002081815481106108ba576108b96115b1565b5b906000526020600020906005020160040160008154809291906108dc906117c1565b91905055507fe8a76fc0f16d11a00d1e93b689b63d76cf60af914dd3d915375dc41d01a0c3c8338383600160008773ffffffffffffffffffffffffffffffffffffffff1673ffffffffffffffffffffffffffffffffffffffff1681526020019081526020016000208581548110610956576109556115b1565b5b9060005260206000209060050201600401546040516109789493929190611710565b60405180910390a15050565b60008054906101000a900461ffff1681565b60008054906101000a900461ffff1661ffff16815111156109ec576040517f08c379a00000000000000000000000000000000000000000000000000000000081526004016109e390611855565b60405180910390fd5b60006040518060a00160405280600160003373ffffffffffffffffffffffffffffffffffffffff1673ffffffffffffffffffffffffffffffffffffffff1681526020019081526020016000208054905081526020013373ffffffffffffffffffffffffffffffffffffffff16815260200183815260200142815260200160008152509050600160003373ffffffffffffffffffffffffffffffffffffffff1673ffffffffffffffffffffffffffffffffffffffff1681526020019081526020016000208190806001815401808255809150506001900390600052602060002090600502016000909190919091506000820151816000015560208201518160010160006101000a81548173ffffffffffffffffffffffffffffffffffffffff021916908373ffffffffffffffffffffffffffffffffffffffff1602179055506040820151816002019081610b3f9190611a21565b50606082015181600301556080820151816004015550507f16fd3c13e9d46923e0a8bce11c7b473ec508a72e6c96cd2404b29ce972afc29e8160000151826020015183604001518460600151604051610b9b9493929190611af3565b60405180910390a15050565b60008060005b600160008573ffffffffffffffffffffffffffffffffffffffff1673ffffffffffffffffffffffffffffffffffffffff16815260200190815260200160002080549050811015610c7457600160008573ffffffffffffffffffffffffffffffffffffffff1673ffffffffffffffffffffffffffffffffffffffff1681526020019081526020016000208181548110610c4857610c476115b1565b5b90600052602060002090600502016004015482610c659190611b3f565b91508080600101915050610bad565b5080915050919050565b600260009054906101000a900473ffffffffffffffffffffffffffffffffffffffff1681565b610cac610e23565b600160003373ffffffffffffffffffffffffffffffffffffffff1673ffffffffffffffffffffffffffffffffffffffff1681526020019081526020016000208281548110610cfd57610cfc6115b1565b5b90600052602060002090600502016040518060a0016040529081600082015481526020016001820160009054906101000a900473ffffffffffffffffffffffffffffffffffffffff1673ffffffffffffffffffffffffffffffffffffffff1673ffffffffffffffffffffffffffffffffffffffff168152602001600282018054610d8690611580565b80601f0160208091040260200160405190810160405280929190818152602001828054610db290611580565b8015610dff5780601f10610dd457610100808354040283529160200191610dff565b820191906000526020600020905b815481529060010190602001808311610de257829003601f168201915b50505050508152602001600382015481526020016004820154815250509050919050565b6040518060a0016040528060008152602001600073ffffffffffffffffffffffffffffffffffffffff1681526020016060815260200160008152602001600081525090565b6000604051905090565b600080fd5b600080fd5b600073ffffffffffffffffffffffffffffffffffffffff82169050919050565b6000610ea782610e7c565b9050919050565b610eb781610e9c565b8114610ec257600080fd5b50565b600081359050610ed481610eae565b92915050565b6000819050919050565b610eed81610eda565b8114610ef857600080fd5b50565b600081359050610f0a81610ee4565b92915050565b60008060408385031215610f2757610f26610e72565b5b6000610f3585828601610ec5565b9250506020610f4685828601610efb565b9150509250929050565b610f5981610eda565b82525050565b610f6881610e9c565b82525050565b600081519050919050565b600082825260208201905092915050565b60005b83811015610fa8578082015181840152602081019050610f8d565b60008484015250505050565b6000601f19601f8301169050919050565b6000610fd082610f6e565b610fda8185610f79565b9350610fea818560208601610f8a565b610ff381610fb4565b840191505092915050565b600060a0820190506110136000830188610f50565b6110206020830187610f5f565b81810360408301526110328186610fc5565b90506110416060830185610f50565b61104e6080830184610f50565b9695505050505050565b60006020828403121561106e5761106d610e72565b5b600061107c84828501610ec5565b91505092915050565b600081519050919050565b600082825260208201905092915050565b6000819050602082019050919050565b6110ba81610eda565b82525050565b6110c981610e9c565b82525050565b600082825260208201905092915050565b60006110eb82610f6e565b6110f581856110cf565b9350611105818560208601610f8a565b61110e81610fb4565b840191505092915050565b600060a08301600083015161113160008601826110b1565b50602083015161114460208601826110c0565b506040830151848203604086015261115c82826110e0565b915050606083015161117160608601826110b1565b50608083015161118460808601826110b1565b508091505092915050565b600061119b8383611119565b905092915050565b6000602082019050919050565b60006111bb82611085565b6111c58185611090565b9350836020820285016111d7856110a1565b8060005b8581101561121357848403895281516111f4858261118f565b94506111ff836111a3565b925060208a019950506001810190506111db565b50829750879550505050505092915050565b6000602082019050818103600083015261123f81846111b0565b905092915050565b600061ffff82169050919050565b61125e81611247565b811461126957600080fd5b50565b60008135905061127b81611255565b92915050565b60006020828403121561129757611296610e72565b5b60006112a58482850161126c565b91505092915050565b6112b781611247565b82525050565b60006020820190506112d260008301846112ae565b92915050565b600080fd5b600080fd5b7f4e487b7100000000000000000000000000000000000000000000000000000000600052604160045260246000fd5b61131a82610fb4565b810181811067ffffffffffffffff82111715611339576113386112e2565b5b80604052505050565b600061134c610e68565b90506113588282611311565b919050565b600067ffffffffffffffff821115611378576113776112e2565b5b61138182610fb4565b9050602081019050919050565b82818337600083830152505050565b60006113b06113ab8461135d565b611342565b9050828152602081018484840111156113cc576113cb6112dd565b5b6113d784828561138e565b509392505050565b600082601f8301126113f4576113f36112d8565b5b813561140484826020860161139d565b91505092915050565b60006020828403121561142357611422610e72565b5b600082013567ffffffffffffffff81111561144157611440610e77565b5b61144d848285016113df565b91505092915050565b600060208201905061146b6000830184610f50565b92915050565b60006020820190506114866000830184610f5f565b92915050565b6000602082840312156114a2576114a1610e72565b5b60006114b084828501610efb565b91505092915050565b600060a0830160008301516114d160008601826110b1565b5060208301516114e460208601826110c0565b50604083015184820360408601526114fc82826110e0565b915050606083015161151160608601826110b1565b50608083015161152460808601826110b1565b508091505092915050565b6000602082019050818103600083015261154981846114b9565b905092915050565b7f4e487b7100000000000000000000000000000000000000000000000000000000600052602260045260246000fd5b6000600282049050600182168061159857607f821691505b6020821081036115ab576115aa611551565b5b50919050565b7f4e487b7100000000000000000000000000000000000000000000000000000000600052603260045260246000fd5b7f545745455420444f4553204e4f54204558495354000000000000000000000000600082015250565b6000611616601483610f79565b9150611621826115e0565b602082019050919050565b6000602082019050818103600083015261164581611609565b9050919050565b7f545745455420484153204e4f204c494b45530000000000000000000000000000600082015250565b6000611682601283610f79565b915061168d8261164c565b602082019050919050565b600060208201905081810360008301526116b181611675565b9050919050565b7f4e487b7100000000000000000000000000000000000000000000000000000000600052601160045260246000fd5b60006116f282610eda565b915060008203611705576117046116b8565b5b600182039050919050565b60006080820190506117256000830187610f5f565b6117326020830186610f5f565b61173f6040830185610f50565b61174c6060830184610f50565b95945050505050565b7f594f5520415245204e4f5420544845204f574e45522100000000000000000000600082015250565b600061178b601683610f79565b915061179682611755565b602082019050919050565b600060208201905081810360008301526117ba8161177e565b9050919050565b60006117cc82610eda565b91507fffffffffffffffffffffffffffffffffffffffffffffffffffffffffffffffff82036117fe576117fd6116b8565b5b600182019050919050565b7f547765657420697320746f6f206c6f6e672062726f2100000000000000000000600082015250565b600061183f601683610f79565b915061184a82611809565b602082019050919050565b6000602082019050818103600083015261186e81611832565b9050919050565b60008190508160005260206000209050919050565b60006020601f8301049050919050565b600082821b905092915050565b6000600883026118d77fffffffffffffffffffffffffffffffffffffffffffffffffffffffffffffffff8261189a565b6118e1868361189a565b95508019841693508086168417925050509392505050565b6000819050919050565b600061191e61191961191484610eda565b6118f9565b610eda565b9050919050565b6000819050919050565b61193883611903565b61194c61194482611925565b8484546118a7565b825550505050565b600090565b611961611954565b61196c81848461192f565b505050565b5b8181101561199057611985600082611959565b600181019050611972565b5050565b601f8211156119d5576119a681611875565b6119af8461188a565b810160208510156119be578190505b6119d26119ca8561188a565b830182611971565b50505b505050565b600082821c905092915050565b60006119f8600019846008026119da565b1980831691505092915050565b6000611a1183836119e7565b9150826002028217905092915050565b611a2a82610f6e565b67ffffffffffffffff811115611a4357611a426112e2565b5b611a4d8254611580565b611a58828285611994565b600060209050601f831160018114611a8b5760008415611a79578287015190505b611a838582611a05565b865550611aeb565b601f198416611a9986611875565b60005b82811015611ac157848901518255600182019150602085019450602081019050611a9c565b86831015611ade5784890151611ada601f8916826119e7565b8355505b6001600288020188555050505b505050505050565b6000608082019050611b086000830187610f50565b611b156020830186610f5f565b8181036040830152611b278185610fc5565b9050611b366060830184610f50565b95945050505050565b6000611b4a82610eda565b9150611b5583610eda565b9250828201905080821115611b6d57611b6c6116b8565b5b9291505056fea2646970667358221220a6820d7c81b7cd0242ca3165b3c1e6600b0092d1b0e07d1f4d3815e967ab998964736f6c634300081c0033",
  "linkReferences": {},
  "deployedLinkReferences": {}
}